:020000040800F2
:1000000028070020912C00081302000815020008A0
:10001000190200081D02000821020008000000006B
:1000200000000000000000000000000025020008A1
:100030002702000800000000290200082B02000827
:10004000AB2C0008AB2C0008AB2C0008AB2C000834
:10005000AB2C0008AB2C0008AB2C0008AB2C000824
:10006000AB2C0008AB2C0008AB2C0008AB2C000814
:10007000AB2C0008AB2C0008AB2C0008AB2C000804
:10008000AB2C0008AB2C0008AB2C0008AB2C0008F4
:10009000AB2C0008AB2C0008AB2C0008AB2C0008E4
:1000A000AB2C0008AB2C0008AB2C0008AB2C0008D4
:1000B000AB2C00086F290008AB2C0008AB2C000803
:1000C000AB2C0008AB2C0008AB2C0008AB2C0008B4
:1000D000AB2C0008212C0008AB2C0008AB2C00082E
:1000E000AB2C0008AB2C0008AB2C0008AB2C000894
:1000F000AB2C0008AB2C0008AB2C0008AB2C000884
:10010000AB2C0008AB2C0008AB2C0008AB2C000873
:10011000AB2C0008AB2C0008AB2C0008AB2C000863
:10012000AB2C0008AB2C0008AB2C0008AB2C000853
:10013000AB2C0008AB2C0008AB2C0008AB2C000843
:10014000AB2C0008AB2C0008AB2C0008AB2C000833
:10015000AB2C0008AB2C0008AB2C0008AB2C000823
:10016000AB2C0008AB2C0008AB2C0008AB2C000813
:10017000AB2C0008AB2C0008AB2C0008AB2C000803
:10018000AB2C0008AB2C0008DFF80CD005F0F2FA1D
:10019000004800479D01000828070020A82002F021
:1001A000FDFB4FF4165002F088FC00F0F0F900F06F
:1001B000C1FB00F0A9FF42F2D00142F2107002F040
:1001C00049FB00F0AFFA00221146104602F0B8FBDE
:1001D00004461DE020698047022307210120226890
:1001E00000F00AFB3A220621012000F0B0FA0223B7
:1001F00004210120626800F0FFFA3A220321012065
:1002000000F0A5FA022301210846A26800F0F4FAE2
:10021000E0E7704700BFFEE700BFFEE700BFFEE774
:1002200000BFFEE770477047704770470CB500206D
:10023000019000907648006840F48030744908606E
:1002400000BF7348006800F4003000900198401C23
:100250000190009818B90198B0F5A04FF1D16C4801
:10026000006800F4003010B10120009001E000208F
:1002700000900098012846D165484030006840F061
:1002800080506349403108606248006840F4404053
:10029000604908605E48083000685D4908310860C0
:1002A0000846006840F4004008600846006840F4D2
:1002B000A05008605848091F0860081F006840F0F7
:1002C0008070091F086000BF5148006800F000708E
:1002D0000028F9D040F20570504908604C480830B9
:1002E000006820F003004A490831086008460068A9
:1002F00040F00200086000BF45480830006800F088
:100300000C000828F8D10CBD10B54548006840F431
:100310007000434908603E48006840F001003C49D5
:10032000086000203A4908310860394800683D49B2
:100330000840374908603C48091D0860081F0068EC
:1003400020F48020091F0860002031490C3108602A
:10035000FFF76CFF4FF0006031498039086010BD35
:1003600070B500200022022300240221284D083508
:100370002D6805F00C0020B1042806D0082834D1DF
:1003800007E02A4D2A4E356033E02A4D284E35606D
:100390002FE01F4D2D1D2D68C5F380541C4D2D1DC4
:1003A0002D6805F03F0154B1224DB5FBF1F5184E13
:1003B000361D3668C6F3881605FB06F209E01B4DAC
:1003C000B5FBF1F5124E361D3668C6F3881605FBEF
:1003D00006F20F4D2D1D2D68C5F301456D1C6B00F8
:1003E000B2FBF3F5124E356003E0104D104E356050
:1003F00000BF00BF064D08352D68C5F303150E4E2E
:10040000705D0B4D2D68C540094E356070BD000014
:1004100000380240007000400C544007003C02408D
:1004200088ED00E0FFFFF6FE103000240024F40009
:1004300000000020001BB7000400002000207349CA
:100440000870704770B504467048007800EB4000B3
:100450006F4901EB400010F814506C48007800EB35
:10046000400001EB400000EB4400467826B1012E2D
:100470001AD0022E58D138E066A005F0DFF96AA242
:100480000321012000F09AF94FF480416B4802F0FB
:1004900083FD4FF480716A4802F080FD4FF4004103
:1004A000664802F07BFD57E066A005F0C7F96BA235
:1004B0000321012000F082F902F0B2F901F002FC00
:1004C0004FF480416B4802F069FD4FF400415B48F6
:1004D00002F062FD4FF48071594802F05FFD4FF465
:1004E0008041564802F05AFD36E063A005F0A6F9B7
:1004F00067A20321012000F061F900F00BFC4FF42A
:1005000080415C4802F04AFD4FF480714C4802F093
:1005100043FD4FF48041494802F040FD4FF4004153
:10052000464802F03BFD17E04FF48071444802F06A
:1005300035FD4FF48041414802F030FD4FF4004159
:100540003E4802F02BFD57A005F078F95AA203218E
:10055000012000F033F900BF00BF2C48057070BDCA
:1005600010B50020FFF76EFF4FF42F7002F078FAFD
:100570000120FFF767FF4FF42F7002F071FA02209D
:10058000FFF760FF4FF42F7002F06AFA10BD1CB540
:100590000121042003F09EFF0121082003F09AFFAF
:1005A00001208DF8040000208DF8060001208DF850
:1005B000070002208DF80500C00100906946204820
:1005C00002F06EFC01208DF8040000208DF806007A
:1005D00001208DF8070002208DF805004FF44040FF
:1005E00000906946154802F05BFC4FF48071144896
:1005F00002F0D4FC4FF48041104802F0CFFC4FF4DD
:1006000000410E4802F0CAFC1CBD704726000020C5
:10061000140000205475726E206F6E207265642085
:100620006C696768740D0A005475726E206F6E20D5
:10063000726564206C69676874000000000C0240F9
:10064000000802405475726E206F6E2079656C6CE4
:100650006F77206C696768740D0A00005475726EBC
:10066000206F6E2079656C6C6F77206C6967687499
:1006700000000000000402405475726E206F6E206E
:10068000677265656E206C696768740D0A0000000A
:100690005475726E206F6E20677265656E206C698E
:1006A00067687400496E76616C696420616374697F
:1006B0006F6E0D0A00000000496E76616C6964205F
:1006C000616374696F6E000010B500F07DFB10BDB2
:1006D00038B50446002000908DF80140022269469A
:1006E000782000F0CDFB38BD38B50446BDA00068C9
:1006F00000908DF8014002226946782000F0C0FB8E
:1007000038BD70B505460C4645F0B000FFF7E0FF78
:10071000102141EA1410FFF7DBFF04F00F00FFF790
:10072000D7FF70BD70B500240EE000212046FFF712
:10073000E8FF002504E00020FFF7D6FF681CC5B2E3
:10074000802DF8DB601CC4B2082CEEDB70BD2DE9F7
:10075000F04105460E461746721ED206110E6A1E5D
:100760005206100EFFF7CDFF002409E0A7F120018B
:100770009D4A02EB0111085DFFF7B6FF601CC4B291
:10078000082CF3DB721ED206110E6A1E012303EB46
:100790004202D0B2FFF7B5FF00240BE0A7F1200121
:1007A000914A02EB011204F10801505CFFF79CFF33
:1007B000601CC4B2082CF1DBBDE8F0812DE9F041EA
:1007C00007460E461546002407E02A5D3019C1B2DF
:1007D0003846FFF7BCFF601CC4B2285D0028F4D186
:1007E000BDE8F08110B50246012000E050430B1E29
:1007F000A1F10101FAD110BD2DE9F04780460E4666
:1008000017461D46002415E0281B411E0A20FFF74D
:10081000E9FFB7FBF0F00A21B0FBF1F201FB120097
:1008200000F130093019C1B24A464046FFF78FFF48
:10083000601CC4B2AC42E7DBBDE8F0872DE9F047AD
:100840008146884615461E46002D06DB2B22414672
:100850004846FFF77CFF2F4605E02D2241464846DB
:10086000FFF775FF6F42002417E0301B411E0A207E
:10087000FFF7B8FFB7FBF0F00A21B0FBF1F201FB84
:10088000120000F1300A08EB0400401CC1B25246CD
:100890004846FFF75CFF601CC4B2B442E5DBBDE82C
:1008A000F0872DE9F04781460E4690461F4600240A
:1008B0001DE0381B411E1020FFF794FFB8FBF0F03D
:1008C00000F00F050A2D08DA05F13000C2B2301928
:1008D000C1B24846FFF73BFF07E005F13700C2B25F
:1008E0003019C1B24846FFF732FF601CC4B2BC42A7
:1008F000DFDBBDE8F0872DE9F04780460E4617465E
:100900001D46002412E0281B411E0220FFF76AFF4B
:10091000B7FBF0F000F0010000F130093019C1B26E
:100920004A464046FFF713FF601CC4B2AC42EADB04
:10093000BDE8F08770B5002406E0002500E06D1CDE
:10094000B5F57A7FFBD3641CB4F57A7FF5D3FFF756
:10095000BBFEAE20FFF7BCFED520FFF7B9FE80201E
:10096000FFF7B6FEA820FFF7B3FE3F20FFF7B0FE6B
:10097000D320FFF7ADFE0020FFF7AAFE4020FFF7CF
:10098000A7FEA120FFF7A4FEC820FFF7A1FEDA20F2
:10099000FFF79EFE1220FFF79BFE8120FFF798FED7
:1009A000CF20FFF795FED920FFF792FEF120FFF749
:1009B0008FFEDB20FFF78CFE3020FFF789FEA4209E
:1009C000FFF786FEA620FFF783FE8D20FFF780FE4F
:1009D0001420FFF77DFEAF20FFF77AFEFFF7A2FE9F
:1009E00070BD000040000000527500081CB50121D8
:1009F000022003F06FFD4FF44060009001208DF85D
:100A0000040000208DF806008DF8070002208DF804
:100A100005006946E34802F043FA1CBD10B5E14801
:100A2000006820F44000DF4908600846006840F490
:100A3000800008600120DC490860DC49C1F8A80298
:100A40000A2001F0C5FF0020D74908600A2001F004
:100A5000BFFF0020D549C1F8A80210BD10B5D1488C
:100A6000006820F44000CF4908600846006840F460
:100A7000800008600020CC49091F0860CB49C1F8FC
:100A8000AC020A2001F0A4FF0120C749091F086039
:100A9000C649C1F8AC020A2001F09AFF10BD10B59A
:100AA00000240120C04908600A2001F091FFBD48E0
:100AB000006820F44000BB490860084600680860F0
:100AC0000120BA49C1F8A8020A2001F081FF05E01F
:100AD000601CC4B2FA2C01DD012010BDB248803880
:100AE00000680028F4D1B049091F086000BFF4E78E
:100AF00010B50020AC49091F0860AA48006820F41E
:100B00004000A84908600846006840F4800008607A
:100B10000020A649C1F8AC020A2001F059FF0120CB
:100B2000A149091F08600A2001F052FF00209F49D7
:100B3000C1F8A80210BD10B500209B49091F08602C
:100B40009848006820F4400096490860084600680C
:100B500040F48000086001209449C1F8AC020A20EA
:100B600001F036FF01209049091F08600A2001F0BA
:100B70002FFF00208D49C1F8A80210BD70B50446B2
:100B80008848006820F440008649086008460068EC
:100B900040F48000086000208349091F0860002598
:100BA0001DE0E00918B101207F49086002E0002043
:100BB0007D4908606006040E0A2001F009FF01204B
:100BC0007949091F08600A2001F002FF00207749D7
:100BD000C1F8A8020A2001F0FBFE681CC5B2082D6E
:100BE000DFDB70BD70B500246E48006820F4400063
:100BF0006C490860084600680860002517E000207E
:100C00006949091F08600A2001F0E2FE01206749D6
:100C1000C1F8A8026006040E63488038006808B175
:100C2000601CC4B20A2001F0D3FE681CC5B2082DB6
:100C3000E5DB204670BD70B505460C46FFF7EEFEBD
:100C40003C20FFF79BFFFFF72AFF2846FFF796FFA0
:100C5000FFF725FF2046FFF791FFFFF720FFFFF783
:100C6000FDFE70BD70B50446FFF7D8FE3C20FFF7CF
:100C700085FFFFF714FF2046FFF780FFFFF70FFF08
:100C8000FFF7ECFEFFF7CAFE3D20FFF777FFFFF707
:100C900006FFFFF7A7FF0546FFF74DFFFFF7DEFE54
:100CA000284670BD70B504460320FFF7DBFF0546FC
:100CB0000420FFF7D7FF00EB052000B224F8020B59
:100CC0000520FFF7CFFF05460620FFF7CBFF00EB1F
:100CD000052000B224F8020B0720FFF7C3FF0546EA
:100CE0000820FFF7BFFF00EB052000B224F8020B3D
:100CF00070BD10B514210020FFF79DFF8021012059
:100D0000FFF799FF00210220FFF795FF0A2001F06D
:100D1000A7FE10BD10B52DED088B2548FFF7C2FFCB
:100D20002349B1F9000004F04DFB41EC1A0B2049B6
:100D3000B1F9040004F046FB41EC1B0BB0EE4A1A7B
:100D4000F0EE6A1AB0EE4B0AF0EE6B0A04F00CFFFC
:100D5000B0EE409AF0EE609A9FED160B53EC102B1C
:100D600051EC190B04F04DFA41EC180B9FED130BED
:100D700053EC102B04F09EF9124A03C2C82001F074
:100D80006FFE104890ED000B51EC100B04F038FB97
:100D900004460223224601210320FFF74FFDBDEC4C
:100DA000088B10BD00040240AC82404200804042EB
:100DB00028000020775AF01ADCA54C400000000003
:100DC000008066403000002000B587B0012102207D
:100DD00003F080FB0121480503F0C5FBC02005900E
:100DE00002208DF818008DF8190001208DF81A00E6
:100DF00000208DF81B0005A94E4802F051F804228E
:100E000006214C4802F0D7F804220721494802F095
:100E1000D2F80020ADF808004BF6FF70ADF80A00DC
:100E20000020ADF80C004FF48060ADF80E0000011A
:100E3000ADF810004048019001A9404803F007FFB9
:100E400001213E4803F07FFF07B000BD10B501212E
:100E50003A4803F09BFF00BF3949384804F08EF848
:100E60000028F9D010BD10B50121344803F09AFFD5
:100E700000BF3449314804F0A3F80028F9D110BD6F
:100E80002DE9F04105460F461646FFF7DFFF002229
:100E900029462A4803F092FF00BF2B49274804F057
:100EA0006DF80028F9D000240DE0395D234804F0E6
:100EB00009F800BF2449891C204804F05FF8002885
:100EC000F8D0601CC4B2B442EFDBFFF7CCFFBDE842
:100ED000F0812DE9F04106460F461546FFF7B6FFB3
:100EE00001223146154803F069FF00BF1449491C2F
:100EF000124804F043F80028F8D0002414E0681EDB
:100F0000A04203D100210D4803F060FF00BF0C494F
:100F10003F310A4804F032F80028F8D0074803F0BF
:100F2000D3FF3855601CC4B2AC42E8DBFFF79BFF2F
:100F3000BDE8F08100040240A0860100005400409A
:100F40000100030010000010820007001CB5012101
:100F5000102003F0BFFA4FF48470009001208DF848
:100F6000040000208DF8060003208DF80500012004
:100F70008DF807006946FE4801F092FF4FF480703B
:100F8000009000208DF8040003208DF80500022059
:100F90008DF807006946F64801F082FF0120F54907
:100FA00008601CBD2DE9F04705460E4617464FF078
:100FB0000009C84600240020EE49086045F080087A
:100FC000404600F079FA814600BF05E0FF2000F0BE
:100FD00073FA3055601CC4B2BC42F7DB0120E5490E
:100FE00008600020BDE8F0872DE9F04104460D4679
:100FF000002600270020DF49086004F07F06304605
:1010000000F05AFA07462E46304600F055FA0746D9
:101010000120D949C1F88C020020BDE8F08170B5EB
:101020000446002500260020D249086044F08005CF
:10103000284600F041FA0646FF2000F03DFA064639
:101040000120CD49C1F88C02304670BD10B5044670
:1010500034B1082C0AD0102C0ED0182C18D111E065
:101060009FEDC60AC64880ED000A18E09FEDC50A4C
:10107000C34880ED000A12E09FEDC30AC04880ED2E
:10108000000A0CE09FEDC10ABD4880ED000A06E0B1
:1010900018249FEDBF0ABA4880ED000A00BF00BFC8
:1010A00021461B20FFF7A0FF10BD10B5044634B148
:1010B000082C0AD0102C0ED0182C18D111E09FED5E
:1010C000B50AB54880ED000A18E09FEDB40AB248B1
:1010D00080ED000A12E09FEDB20AAF4880ED000AF1
:1010E0000CE09FEDB00AAC4880ED000A06E0102449
:1010F0009FEDAB0AA84880ED000A00BF00BF214663
:101100001C20FFF771FF10BD10B5FFF71FFF00F0A7
:10111000ECF980216B20FFF767FF20B1A2A004F05B
:101120008DFB012010BD322001F09AFC6B20FFF7EF
:1011300076FFA34908607520FFF771FFA149087089
:1011400008460178A0A004F079FB322001F088FC69
:1011500001216B20FFF748FF322001F081FC0021C4
:101160001920FFF741FF04211A20FFF73DFF04215A
:101170001D20FFF739FF1020FFF797FF1820FFF71A
:1011800065FF642001F06CFC94A004F057FB002084
:10119000C8E71CB50446062269463B20FFF702FF5C
:1011A00008B101201CBD9DF801009DF8001000EB66
:1011B000012000B220809DF803009DF8021000EB92
:1011C000012000B260809DF805009DF8041000EB3E
:1011D000012000B2A0800020E4E71CB504460622EE
:1011E00069464320FFF7DEFE08B101201CBD9DF8D3
:1011F00001009DF8001000EB012000B220809DF856
:1012000003009DF8021000EB012000B260809DF801
:1012100005009DF8041000EB012000B2A080002022
:10122000E4E71CB504466846FFF7D7FF08B1012084
:101230001CBDBDF9000000EE100AB8EEC00A50480F
:10124000D0ED000A20EE200A84ED000ABDF902006C
:1012500000EE100AB8EEC00A4948D0ED000A20EEB0
:10126000200A84ED010ABDF9040000EE100AB8EE70
:10127000C00A4348D0ED000A20EE200A84ED020A9D
:101280000020D5E71CB504466846FFF782FF08B189
:1012900001201CBDBDF9000000EE100AB8EEC00A26
:1012A0003D48D0ED000A20EE200A84ED000ABDF989
:1012B000020000EE100AB8EEC00A3748D0ED000A6E
:1012C00020EE200A84ED010ABDF9040000EE100AA8
:1012D000B8EEC00A3048D0ED000A20EE200A84EDB6
:1012E000020A0020D5E738B5022269464120FFF7FF
:1012F00059FE10B19FED3F0A38BD9DF801009DF8E1
:10130000001000EB012004B200EE104AF8EEC00A13
:101310009FED391A80EE810AF3EE090A30EE200AB9
:10132000EAE710B52DED028B3448FFF77AFF344819
:10133000FFF7A8FFFFF7D7FFB0EE408A2F4890EDE8
:10134000000ABDEEC00A10EE102A0223012103207C
:10135000FFF774FA294890ED010ABDEEC00A10EEBD
:10136000102A022305210320FFF768FA234849E0E9
:10137000001002408C02424200004242F501FA3B5A
:101380003C000020F5017A3CF501FA3C90C1793D22
:10139000F5017A3D294880383800002000000039E6
:1013A000000080390000003A69636D5F32303630EA
:1013B00032207265736574206661696C0D0A0000E5
:1013C000440000204000002069636D5F32303630F9
:1013D000322069643D25780D0A00000069636D3292
:1013E0003036303220696E697420706173730D0A73
:1013F0000D0A0000000000006666A343A000002064
:101400009400002090ED020ABDEEC00A10EE102AF2
:10141000022309210320FFF711FABDEC028B10BD56
:1014200010B52DED028B2248FFF7FBFE2148FFF798
:1014300029FFFFF758FFB0EE408A1E4890ED000AE2
:10144000BDEEC00A10EE102A022301210320FFF78F
:10145000F5F9184890ED010ABDEEC00A10EE102A09
:10146000022305210320FFF7E9F9124890ED020A53
:10147000BDEEC00A10EE102A022309210320FFF757
:10148000DDF9BDEC028B10BD10B52DED028BFFF721
:101490002AFFB0EE408A0223BDEEC80A10EE102AE1
:1014A00001210320FFF7CAF9BDEC028B10BD00003B
:1014B000A00000209400002010B5044600BF0221C7
:1014C0004E4803F06BFB0028F9D021464B4803F04F
:1014D0001CFB00BF0121494803F060FB0028F9D044
:1014E000464803F00FFBC0B210BD00B587B0012124
:1014F000084602F0EFFF0121022002F0EBFF01217C
:10150000102002F0E7FF0121080303F03DF810204E
:10151000059002208DF8180000208DF81A00032095
:101520008DF8190001208DF81B0005A9344801F041
:10153000B7FCA020059002208DF8180000208DF83F
:101540001A0003208DF8190001208DF81B0005A951
:101550002C4801F0A5FC05220421294801F02BFDAF
:1015600005220721274801F026FD052211462548BE
:1015700001F021FD0121080303F05BF800214FF485
:10158000805003F056F80020ADF800004FF4827050
:10159000ADF802000020ADF804000220ADF806000E
:1015A0000120ADF808004002ADF80A002820ADF88F
:1015B0000C000020ADF80E000720ADF810006946C1
:1015C0000E4803F027F901210C4803F01DFAFF2013
:1015D000FFF772FF07B000BD10B50446074800884A
:1015E0004FF6C77108400549088008460088204327
:1015F00008800121014803F007FA10BD00300140C6
:1016000000040240000002401CB50121022002F04B
:1016100061FF0121042002F05DFF0121102002F092
:1016200059FF1020009001208DF8040000208DF853
:10163000060003208DF8050001208DF8070069469B
:10164000FE4801F02DFC012000908DF804000020E0
:101650008DF8060003208DF8050001208DF80700A5
:101660006946F74801F01CFC8020009000208DF8AE
:10167000040003208DF8050001208DF8070069465D
:10168000F04801F00DFC0220009000208DF80400CD
:1016900003208DF8050001208DF807006946E84811
:1016A00001F0FEFB1CBD2DE9F04104460D46002073
:1016B000E5490860002704F07F063046FFF7FCFE8E
:1016C00007462E463046FFF7F7FE0746012001F099
:1016D000C7F90120DD49C1F89002BDE8F0812DE98C
:1016E000F04104460D460020D949086004F07F0609
:1016F00000273046FFF7E0FE07462E463046FFF74C
:10170000DBFE0746012001F0ABF90120D149C1F809
:101710008002BDE8F0812DE9F04104460D4600202D
:10172000C9490860002744F080063046FFF7C4FE30
:101730000746FF20FFF7C0FE28700120C349C1F80B
:101740009002BDE8F0812DE9F04104460D460020ED
:10175000BF49086044F0800600273046FFF7ACFE22
:1017600028700120BB49C1F88002BDE8F0812DE955
:10177000F04705460E46174600240020B24908608F
:1017800045F0800881464046FFF796FE814600BF3F
:1017900004E0FF20FFF790FE3855641CB442F8DBEC
:1017A0000120A9490860BDE8F0872DE9F047064609
:1017B0000F4614460020A649086046F0800881467E
:1017C0004046FFF779FE2070012504E0FF20FFF777
:1017D00073FE60556D1CBD42F8DB01209C4908601A
:1017E000BDE8F08710B5FFF780FEFFF70DFFB621CB
:1017F0007E20FFF758FF322001F032F904217D20CE
:10180000FFF751FF00217C20FFF74DFFB621142088
:10181000FFF765FF322001F023F900211120FFF7C7
:101820005EFF00214120FFF73EFF8C214020FFF7A3
:101830003AFF02210F20FFF752FF00211020FFF78F
:101840004EFF10BD1CB501213C20FFF748FF0020D2
:10185000019008E001A93C20FFF775FF9DF8040006
:10186000C0F3400001909DF804000028F2D06946C2
:101870003C20FFF768FF9DF80000C0F38000009057
:101880009DF8000008B900201CBD0820FCE710B539
:1018900086B0044603A94120FFF73DFF04AA0621B4
:1018A0001220FFF764FF9DF810009DF8111000EB67
:1018B000012000B2ADF804009DF812009DF813104D
:1018C00000EB012000B2ADF806009DF814009DF871
:1018D000151000EB012000B2ADF80800BDF90400BE
:1018E00000EE100AB8EEC00ADFED5B0A20EE200A17
:1018F00084ED000ABDF9060000EE100AB8EEC00A39
:10190000DFED550A20EE200A84ED010ABDF908003A
:1019100000EE100AB8EEC00ADFED4F0A20EE200AF2
:1019200084ED020A06B010BD00B52DED048B87B022
:1019300003214120FFF7B7FEA7214020FFF7B3FEA8
:101940000A2001F08DF80D216D20FFF7ACFE642018
:1019500001F086F804A8FFF79AFF09216D20FFF730
:10196000A2FE642001F07CF801A8FFF790FF00219F
:101970006D20FFF798FE642001F072F89DED040AD7
:10198000DDED010A30EE600A10EE101A084603F091
:1019900056FD41EC190BB0EE490AF0EE690A04F06D
:1019A000DBF9B0EE408AF0EE608A9FED2C0B53EC31
:1019B000102B51EC180B03F06DFD54D39DED050A6F
:1019C000DDED020A30EE600A10EE101A084603F050
:1019D00036FD41EC190BB0EE490AF0EE690A04F04D
:1019E000BBF9B0EE408AF0EE608A9FED1C0B53EC21
:1019F000102B51EC180B03F04DFD34D39DED060A6E
:101A0000DDED030A30EE600A10EE101A084603F00E
:101A100016FD41EC190BB0EE490AF0EE690A04F02C
:101A20009BF9B0EE408AF0EE608A9FED0C0B53EC10
:101A3000102B51EC180B03F02DFD13E000080240B1
:101A40000004024000100240900241420000414266
:101A50008082404200804042E7416B3A000000A093
:101A60009999B93F04D2022007B0BDEC048B00BDA8
:101A7000B6217E20FFF717FE04217D20FFF713FE1D
:101A800000217C20FFF70FFE8C214020FFF70BFE8A
:101A900000214120FFF707FE0020E5E770B5002098
:101AA000D049086080252846FFF706FD0446FF2040
:101AB000FFF702FD04460120CB49C1F880023C201B
:101AC00000F0CEFF0F2C05D02146C8A003F0B6FED3
:101AD000042070BD2146CBA003F0B0FE0020F8E743
:101AE00008B569460020FFF716FEC82000F0B8FFD1
:101AF00069460020FFF70FFE9DF800001E2806D063
:101B00009DF80010C5A003F099FE012008BD9DF8C6
:101B10000010C8A003F092FE0020F7E710B50024E3
:101B2000FFF760FEFFF7DCFF0443FFF7B7FF044356
:101B3000FFF7FAFE0443FFF785FE04432146C3A0E6
:101B400003F07CFE204610BD10B52DED028B86B053
:101B5000044603A90F20FFF7F6FD9DF80C000528A9
:101B600013D2DFE800F00306090C0F009FEDBA8ADC
:101B70000EE09FEDBA8A0BE09FEDB98A08E09FED79
:101B8000B98A05E09FEDB88A02E09FEDB38A00BFF5
:101B900000BF04AA06210220FFF707FE9DF81000EF
:101BA0009DF8111000EB012000B2ADF804009DF883
:101BB00012009DF8131000EB012000B2ADF80600F2
:101BC0009DF814009DF8151000EB012000B2ADF84F
:101BD0000800BDF9040000EE100AB8EEC00AC0EE1D
:101BE000080A9FEDA20A20EE800A84ED000ABDF9E2
:101BF000060000EE100AB8EEC00AC0EE080A9FED1B
:101C00009B0A20EE800A84ED010ABDF9080000EE6F
:101C1000100AF8EEC00A80EE880ADFED940A20EE82
:101C2000200A84ED020A06B0BDEC028B10BD38B567
:101C300004466A4603211820FFF799FD9DF800002D
:101C400000EE100AB8EE400ADFED890A20EE200A05
:101C50009DF8010000EE900AF8EE600A9FED851AEB
:101C600000EE810A9DF8020000EE900AF8EE600A8C
:101C70009FED811A00EE810A84ED000A38BDF8B5A7
:101C800006466A4602212220FFF771FD9DF80000FA
:101C9000C0009DF8011000EB6114B4F5806F03DB08
:101CA000A4F5006005B200E025B200EE105AF8EE8F
:101CB000C00AB4EE001AB3EE070A00EE810A86ED00
:101CC000000AF8BD10B52DED028B6C48FFF73CFF04
:101CD000C82000F0C5FE694890ED010A10EE101A08
:101CE000084603F0ACFB41EC180B53EC182B64A036
:101CF00003F0A4FD614890ED000A10EE101A0846AA
:101D000003F09DFB41EC180B53EC182B63A003F080
:101D100095FD5A4890ED020A10EE101A084603F09D
:101D20008EFB41EC180B53EC182B63A003F086FDDF
:101D30006748FFF7ACFDC82000F092FE644890EDC4
:101D4000000A10EE101A084603F079FB41EC180B5C
:101D500053EC182B5FA003F071FD5D4890ED010A74
:101D600010EE101A084603F06AFB41EC180B53EC16
:101D7000182B5EA003F062FD554890ED020A10EEAC
:101D8000101A084603F05BFB41EC180B53EC182BC0
:101D90005CA003F053FD394890ED010ABDEEC00A86
:101DA00010EE102A032301210420FEF747FD3348DB
:101DB00090ED000ABDEEC00A10EE102A03230521A3
:101DC0000420FEF73BFD2D4890ED020ABDEEC00A4F
:101DD00010EE102A032309210420FEF72FFDBDEC8D
:101DE000028B10BD80824042008040424759524FD2
:101DF0005F434849505F49445F4552523A25780D48
:101E00000A0000004759524F5F434849505F494418
:101E10005F737563633A25780D0A00004143435FA1
:101E2000434849505F49445F4552523A25780D0A6C
:101E3000000000004143435F434849505F49445F0D
:101E4000737563633A25780D0A000000626D69308E
:101E500038383A25780D0A006F1283416F12034219
:101E60006F1283426F1203436F12834335FA8E3C25
:101E70000AD723380AD7233C0AD72340AC000020D6
:101E8000424D49303838444154415F4759524F70B0
:101E9000697463683A25660D0A000000424D4930B6
:101EA0003838444154415F4759524F726F6C6C3A15
:101EB00025660D0A00000000424D49303838444183
:101EC00054415F4759524F7961773A25660D0A00B0
:101ED000D0000020424D49303838444154415F41E0
:101EE0004343583A25660D0A00000000424D493030
:101EF0003838444154415F414343593A25660D0AFD
:101F000000000000424D49303838444154415F419F
:101F100043435A3A25660D0A000000001CB5012112
:101F2000022002F0D7FA4FF44060009001208DF8B3
:101F3000040000208DF8060001208DF80700022023
:101F40008DF805006946FD4800F0AAFF0120FC4914
:101F50000860FC49C1F8AC021CBD10B5F748006828
:101F600020F44000F54908600846006840F480000D
:101F700008600120F2490860F249C1F8AC0206206D
:101F800000F026FD0020EE49091D0860062000F043
:101F90001FFD0020EB49C1F8A80210BD10B5E748AD
:101FA000006820F44000E54908600846006840F4F5
:101FB000800008600020E2490860E249C1F8AC02F4
:101FC000062000F005FD0120DD490860DD49C1F86B
:101FD000AC020A2000F0FCFC10BD10B50024D7486C
:101FE000006820F44000D549086008460068086091
:101FF0000120D3490860052000F0EAFC0120D14906
:10200000C1F8AC02052000F0E3FC07E0601CC4B29C
:10201000FA2C03DDFFF7C2FF012010BDC8487C3851
:1020200000680028F2D1C649086000BFF5E710B586
:102030000020C3490860C148006820F44000BF493F
:1020400008600846006840F4800008600020BD4930
:10205000C1F8AC02062000F0BBFC0120B8490860C2
:10206000062000F0B5FC0020B649C1F8A80210BD5A
:1020700010B50020B2490860B048006820F4400064
:10208000AE4908600846006840F4800008600120FE
:10209000AC49C1F8A802062000F09AFC0120A8492A
:1020A000091D0860062000F093FC0020A549C1F836
:1020B000A80210BD70B50446A048006820F4400096
:1020C0009E4908600846006840F4800008600020CF
:1020D0009B490860002517E0E0099949091D08603F
:1020E0006006040E062000F073FC01209549C1F83B
:1020F000A802062000F06CFC002091490860062030
:1021000000F066FC681CC5B2082DE5DB70BD70B53B
:10211000054600248948006820F44000874908608B
:10212000084600680860002616E000208449086020
:10213000062000F04DFC01208249C1F8A80260068B
:10214000040E7F487C38006808B1601CC4B20620C9
:1021500000F03EFC701CC6B2082EE6DB15B9FFF796
:1021600087FF01E0FFF763FF204670BD70B50446AE
:102170000D460026FFF7F1FE2046FFF79BFFFFF715
:102180002CFF2846FFF796FFFFF727FFFFF7E5FE36
:1021900044F00100FFF78EFFFFF71FFF0020FFF75D
:1021A000B6FF0646FFF7FAFE304670BD2DE9F04156
:1021B0000746884615461E460024FFF7CEFE3846E1
:1021C000FFF778FFFFF709FF4046FFF773FFFFF7C0
:1021D00004FFFFF7C2FE47F00100FFF76BFFFFF7B8
:1021E000FCFE00BF0CE0681EA04204D10020FFF7F7
:1021F0008EFF305503E00120FFF789FF3055641C46
:10220000AC42F0DBFFF7CAFEBDE8F08170B50646D0
:102210000C461546FFF7A1FE3046FFF74BFFFFF7D0
:10222000DCFE2046FFF746FFFFF7D7FE2846FFF704
:1022300041FFFFF7D2FEFFF7B1FE70BD2DE9F0417F
:1022400080460D4616461F460024FFF786FE404690
:10225000FFF730FFFFF7C1FE2846FFF72BFFFFF720
:10226000BCFE00BF05E0385DFFF724FFFFF7B5FEB9
:10227000641CB442F7DBFFF791FEBDE8F08110B5B6
:102280003148007808B1012010BD142000F0E8FBAF
:10229000D021EC20FFF76AFF2C490870084601782E
:1022A0002BA003F0CBFA2948007858280CD12748F6
:1022B00001782DA003F0C2FA0223244802780121FC
:1022C0001846FEF7EEFA01E00020DDE72B4B18225E
:1022D0008821EC20FFF76AFFB322F421EC20FFF7FE
:1022E00095FF1422F521EC20FFF790FF01201649FD
:1022F000087000BFC8E71CB56B460622F721EC202A
:10230000FFF754FF9DF8000000039DF8011040EA1C
:1023100001109DF8021040EA1110194908609DF85B
:10232000030000039DF8041040EA01109DF8051019
:1023300040EA1110134908601CBD0000000402406F
:10234000A88240420080404249000020480000200E
:10235000424D50323830204944206572726F723AD3
:1023600020307825580D0A00424D5032383020492F
:10237000442049533A20307825580A00F4000020C0
:102380004C0000205000002030B50146CC10FD4D1F
:102390002D88A4EB4504FB4DB5F902506C43E212C5
:1023A000F84C2488C4EB211464432413F54DB5F98B
:1023B00004506C43A313D418F24DAC612C46A469AD
:1023C00004EB84048034201230BD2DE9F14F82B03B
:1023D000EC488069C1174FF4FA33C41A61F1000563
:1023E000A4FB041005FB040004FB0502E548B0F95A
:1023F0001000C317A1FB008A02FB00A001FB030928
:10240000E048B0F90E00C117A0FB042301FB043122
:1024100000FB0510400440EAD230510411EB0808DB
:1024200040EB0909D748B0F90C0018F1000849EB56
:10243000C009A4FB041005FB040004FB0503D148FC
:10244000B0F90A004FEAE072A1FB00CA03FB00A04A
:1024500001FB02014FEA1C2040EA01604FEA212201
:10246000C849B1F908104FEAE17C2346A1FB03BE3D
:102470000CFB04E301FB05314FEA013141EA1B513A
:102480004FEA0B33C41842EB0105221C45F500410D
:10249000BC48C0880023A2FB00AC01FB00C002FBCB
:1024A00003014C10CD17002184EA01006940084364
:1024B00001D1BDE8FE8F0298C0F58010C71706460F
:1024C000F80740EA5600F107B1EB080160EB090C90
:1024D00040F635400022A1FB003A0CFB00A001FBB6
:1024E00002012246CDE900312B46009802F0B1FDF1
:1024F00006460F46A348B0F91600C217710B41EA11
:10250000C74C7B13A0FB0C1A02FB0CA200FB03229E
:10251000700B40EAC7407B13A1FB00CA02FB00A07E
:1025200001FB03014FEA5C6040EAC1144D16954877
:10253000B0F91400C117A0FB062301FB063100FB14
:102540000711D00C40EA41384FEAE149311947EB15
:10255000050011EB080140EB0900020642EA1120D8
:102560008849B1F91210090146183046A1E770B543
:102570002DED088B04460D469FED830BB0EE409A7F
:10258000F0EE609A002682488249097800EB8100CB
:1025900090ED000AB5EEC00AF1EE10FA17D194EDF5
:1025A000000A7B487B49097800EB810080ED000A36
:1025B00094ED000A85ED000A76480078401CC0B210
:1025C0007449087005286ADB0020087067E07148CC
:1025D000007860B194ED000A6E480078401E6C49A6
:1025E00001EB8000D0ED000A30EE608A06E094ED49
:1025F000000A6748D0ED040A30EE608A18EE100A2F
:1026000002F01DFF41EC1B0BB0EE4B0AF0EE6B0A23
:1026100003F0A2FBB0EE40AAF0EE60AA9FED5E0BC5
:1026200053EC102B51EC1A0B02F01CFF12D294ED5C
:10263000000A57485749097800EB810080ED000AED
:1026400054480078401CC0B252490870052801DB8C
:1026500000200870002613E04D4800EB860090ED46
:10266000000A10EE101A084602F0E9FE41EC1A0BBF
:1026700053EC192B02F01EFD41EC190B701CC6B275
:10268000052EE9DB9FED460B53EC102B51EC190B9B
:1026900002F029FE41EC1A0B02F014FF2860BDEC99
:1026A000088B70BD70B52DED0A8B044694ED000AC1
:1026B000B5EEC00AF1EE10FA39DD94ED000ADFED57
:1026C0003A0A80EE801A11EE105A284602F0B7FE40
:1026D00041EC1C0B9FED351BB0EE4C0AF0EE6C0A82
:1026E00003F046FBB0EE40BAF0EE60BA9FED310B5E
:1026F00053EC102B51EC1B0B02F07DFD41EC1A0B3F
:102700009FED2E0B53EC102B02F07BFD41EC190BCF
:102710009FED2C0B53EC102B02F0E5FD41EC180B58
:1027200002F0D0FE00EE100ABDEC0A8B70BD9FEDEA
:10273000270AF9E72DE9F0412DED048B04460D46FB
:102740001646FFF7D8FD22480068FFF71DFE074632
:1027500002F038FE41EC190B9FED1E0B53EC102BD1
:1027600002F0C1FD41EC180B02F0ACFE1B49086001
:102770001B480068FFF729FE074602F034FE41ECD3
:10278000190B2FE0F4000020000000000000000002
:102790001001002054000020000000A09999B93FCA
:1027A0000000000000001440CDEC7D4428610C873F
:1027B0008A5AC83F000000000000F03F000000609F
:1027C00066A2724000000080BE9F7A3F00000000B9
:1027D0005000002000000000000059405800002078
:1027E0004C0000209FED170B53EC102B02F07BFDEB
:1027F00041EC180B02F066FE1449086021461348AC
:10280000FFF7B5FE124890ED000A85ED000A20465C
:10281000FFF748FF86ED000ABDEC048BBDE8F081B0
:102820000EB56A4602A901A8FFF784FF02239DEDB9
:10283000020ABDEEC00A10EE102A04210320FDF7A3
:10284000FDFF0EBD000000000000D9405C0000202C
:10285000580000207FB505460C460121022001F0FA
:1028600082FE681E0290601E80B2ADF80400002057
:10287000ADF80600ADF80C0001A9464800F0ABFE2B
:102880001D208DF8000000208DF801008DF8020059
:1028900001208DF80300684600F011FA012211466C
:1028A0003C4801F039FB01213A4800F01DFF7FBD93
:1028B0003948006800683C280ADB374800684068EF
:1028C000401C3549096848600020334909680860A0
:1028D0003148006840683C280ADB2F48006880685F
:1028E000401C2D490968886000202B490968486010
:1028F000294800688068182803DB002026490968F9
:1029000088607047244800680068401C22490968B4
:102910000860704710B5142004F0AEFD04460CB9F1
:10292000002010BD002020606060A060AFF22B008E
:10293000E060AFF283002061174804602046F0E7B2
:102940002DE9F04104460D461646FFF7E3FF074622
:1029500017B90020BDE8F0810F48006804600E48F8
:10296000006845600C48006886603846F2E710B59C
:102970000121084801F0E7FA01280AD10648006859
:102980000068401C0449096808600121014801F001
:10299000EBFA10BD000400406000002010B50446B2
:1029A0006FF0040000F0D8F9E11704EB5171C1F3A6
:1029B000C701394A11701046007800EB4001C1EBA5
:1029C000C0104FF6FF7101EAC0003449088010BD05
:1029D0000146314A12784A434FF0E0235A610022FF
:1029E0009A611A46126942F001021A6100BF4FF063
:1029F000E022106900F001021AB100F48032002ACE
:102A0000F5D04FF0E022126922F001024FF0E023EE
:102A10001A6100229A6170470146204A12884A438F
:102A20004FF0E0235A6100229A611A46126942F07F
:102A300001021A6100BF4FF0E022106900F00102AC
:102A40001AB100F48032002AF5D04FF0E02212696A
:102A500022F001024FF0E0231A6100229A617047D0
:102A600070B504464FF4077094FBF0F0C6B24FF413
:102A7000077094FBF0F100FB114085B205E04FF4C4
:102A80000770FFF7C9FF701EC6B2002EF7D115B14F
:102A90002846FFF7C1FF70BD6400002066000020DB
:102AA00000BF704700BF754A128802F04002002A3A
:102AB000F9D0C2B2714B9A80704710B588B0044605
:102AC0000121084601F006FD0121102001F05CFD06
:102AD000072209216A4800F06EFA07220A21684895
:102AE00000F069FA4FF4C060069002208DF81C00D7
:102AF0008DF81D0000208DF81E0001208DF81F00AC
:102B000006A95F4800F0CCF902940020ADF80C0053
:102B1000ADF80E00ADF81000ADF814000C20ADF8C3
:102B2000120002A9554800F0E6FA0121534800F0CE
:102B30006AFB012240F22551504800F01AFC252082
:102B40008DF8040003208DF805008DF806000120A3
:102B50008DF8070001A800F0B2F808B010BD70B5FC
:102B600004460D462946204600F078FB00BF802130
:102B7000204600F023FC0028F9D070BD2DE9F0417B
:102B800005460C46260AE7B23146284600F066FBA9
:102B900000BF8021284600F011FC0028F9D03946FA
:102BA000284600F05BFB00BF8021284600F006FCB1
:102BB0000028F9D0BDE8F0812DE9F04107460D4627
:102BC000164600240CE0295D384600F047FB00BFA4
:102BD0008021384600F0F2FB0028F9D0601C84B256
:102BE000B442F0DB00BF4021384600F0E7FB00288C
:102BF000F9D0BDE8F08170B506460C46002500BF4F
:102C0000615D3046FFF7ABFF6D1C605D0028F7D1BA
:102C100000BF4021304600F0D1FB0028F9D070BD44
:102C200010B540F22551154800F0DEFB28B31348DB
:102C300000F018FBC4B21348006850B1232C08D030
:102C400011481049096844540E480068401C0D4959
:102C50000860232C08D100200A4908600A48047043
:102C600008460068401C08600A2C06D1002005496F
:102C70000860054840780549087010BD0010014003
:102C800000000240740000206E000020730000204D
:102C90000648804706480047FEE7FEE7FEE7FEE7F6
:102CA000FEE7FEE7FEE7FEE7FEE7FEE709030008B2
:102CB0008901000832490143324A1160704770B5FA
:102CC000002100230F22C4781CB32E4C246804F486
:102CD000E064C4F5E064C4F30721C1F10404E3B285
:102CE0000A4144789C40E1B28478144021430C07A7
:102CF000210E254C05786155047804F01F05012448
:102D0000AC4005786D11AD0005F1E025C5F8004136
:102D100009E0047804F01F050124AC401B4D06783F
:102D2000761145F8264070BD194A0A400243154BFA
:102D30001B1F1A60704739B1124A121D12680243F4
:102D4000104B1B1D1A6006E00E4A121D12688243CA
:102D50000C4B1B1D1A607047042808D14FF0E0216E
:102D6000096941F004014FF0E022116107E04FF0E2
:102D7000E021096921F004014FF0E0221161704760
:102D80000000FA050CED00E000E400E080E100E066
:102D900080FFFF1F10B504469848844208D10121E6
:102DA000084601F002FC0021012001F0FEFB76E064
:102DB0009348844208D10121022001F0F6FB002152
:102DC000022001F0F2FB6AE08E48844208D1012122
:102DD000042001F0EAFB0021042001F0E6FB5EE0A4
:102DE0008948844208D10121082001F0DEFB00213E
:102DF000082001F0DAFB52E08448844208D1012126
:102E0000102001F0D2FB0021102001F0CEFB46E0A3
:102E10007F48844208D10121202001F0C6FB002117
:102E2000202001F0C2FB3AE07A48844208D1012117
:102E3000402001F0BAFB0021402001F0B6FB2EE05B
:102E40007548844208D10121802001F0AEFB0021A9
:102E5000802001F0AAFB22E07048844208D10121C1
:102E6000801501F0A2FB0021A01501F09EFB16E0E9
:102E70006B48844208D10121401501F096FB0021E6
:102E8000601501F092FB0AE06648844207D10121F7
:102E9000001501F08AFB0021201501F086FB10BD12
:102EA000F0B50A4600210023002400BF3DE00125C3
:102EB00005FA01F3156805EA03049C4234D105685C
:102EC0004F000326BE40B543056015794E00B5405E
:102ED0000668354305601579012D02D01579022D5C
:102EE00016D185684F000326BE40B54385605579ED
:102EF0004E00B540866835438560456801268E40A2
:102F0000B5434560456896798E40B6B23543456015
:102F1000C5684F000326BE40B543C560D5794E0055
:102F2000B540C6683543C560491C1029BFD3F0BD04
:102F30004FF6FF7101600021017141718171C17112
:102F4000704708B54FF480320092009A0A4300920D
:102F5000009AC261C161009AC261C2690092C269ED
:102F6000009208BD0246002013690B400BB10120FE
:102F700000E0002070470146086980B270470246B1
:102F8000002053690B400BB1012000E00020704786
:102F90000146486980B2704701837047418370479A
:102FA0000AB1018300E04183704741617047426983
:102FB0004A4042617047F0B5002300244D07ED0EF2
:102FC00002FA05F3CE1000F1200555F826504E0701
:102FD000F70E0F26BE40B543CF1000F1200646F88D
:102FE0002750CE1000F1200555F8265045EA03047D
:102FF000CE1000F1200545F82640F0BD000002404B
:103000000004024000080240000C02400010024090
:103010000014024000180240001C02400020024040
:10302000002402400028024010B50446FA488442B9
:1030300008D10121102001F0FCFA0021102001F03C
:10304000F8FA57E0F548844209D10121480401F01B
:10305000DFFA00214FF4003001F0DAFA4AE0F048DC
:10306000844209D10121880401F0D2FA00214FF4F1
:10307000802001F0CDFA3DE0EA48844209D10121E7
:10308000C80401F0C5FA00214FF4002001F0C0FA95
:1030900030E0E548844209D10121080501F0B8FA81
:1030A00000214FF4801001F0B3FA23E0DF4884429E
:1030B00008D10121202001F0BCFA0021202001F0DC
:1030C000B8FA17E0DA48844209D10121880701F0F3
:1030D0009FFA00214FF0804001F09AFA0AE0D548AB
:1030E000844207D10121400501F092FA00216005D8
:1030F00001F08EFA10BD2DE9FF4705460E4600246B
:10310000A14600BFA046B08900B100BF2C8A24F4BC
:103110004054F08804432C82AC8941F20C60844313
:10312000B08831890843718908430443AC81AC8A73
:1031300024F44074B0890443AC82684601F0F9F885
:10314000B548854202D0B948854202D1DDF80C90DD
:1031500001E0DDF80890A88900F4004040B109EBD7
:10316000C90000EB091031684900B0FBF1F707E036
:1031700009EBC90000EB091031688900B0FBF1F7D9
:103180006420B7FBF0F004012009642101FB1078F2
:10319000A88900F4004040B1322000EBC800B0FB29
:1031A000F1F000F00700044308E0322000EB0810C3
:1031B0006421B0FBF1F000F00F0004432C81BDE866
:1031C000FF874FF41651016000218180C180018189
:1031D0000C21418100218181704710B502460020F9
:1031E000108A20F470600B884C8823438C8823431A
:1031F000CC8823431843108210BD002101804180F8
:103200008180C180704721B1828942F4005282815D
:1032100004E082894DF6FF731A4082817047028B69
:1032200002F47F420283028B0A430283704721B17A
:10323000828942F40042828103E08289C2F30E0255
:103240008281704721B1828A42F40062828204E066
:10325000828A4FF2FF731A4082827047C1F30802DC
:103260008280704701468888C0F308007047028A50
:103270004FF6F0731A400282028A0A4302827047B4
:1032800021B1828942F00202828104E082894FF6F4
:10329000FD731A408281704782894FF2FF731A4092
:1032A000828182890A4382817047028A4FF6DF73E6
:1032B0001A400282028A0A430282704721B1028ABE
:1032C00042F48042028204E0028A4BF6FF731A4005
:1032D00002827047818941F001018181704721B1EB
:1032E000828A42F00802828204E0828A4FF6F773F3
:1032F0001A4082827047028BD2B20283028B42EA6A
:1033000001220283704721B1828A42F02002828228
:1033100004E0828A4FF6DF731A408282704721B13F
:10332000828A42F01002828204E0828A4FF6EF73B2
:103330001A4082827047828A4FF6FB731A4082825B
:10334000828A0A438282704721B1828A42F0020255
:10335000828204E0828A4FF6FD731A4082827047AF
:103360001AB1838A0B43838202E0838A8B43838270
:103370007047F0B50346002400260025002040F6E3
:103380006A17B94200D100BF1846C1F3421401F0D8
:103390001F06012707FA06F5012C01D10C3004E0C5
:1033A000022C01D1103000E014301AB107682F430D
:1033B000076002E00768AF430760F0BD02460020E7
:1033C000B1F5007F00D100BF13880B400BB1012085
:1033D00000E00020704701F40072B2F5007F00D1D8
:1033E00000BFCA430280704770B502460024002324
:1033F0000025002040F66A16B14200D100BFC1F39B
:10340000421501F01F03012606FA03F3012D13D123
:103410009689334017E0000000100140004400404E
:1034200000480040004C00400050004000140140A3
:1034300000780040007C0040022D02D1168A334003
:1034400001E0968A33400C12012606FA04F416882D
:10345000344013B10CB1012000E0002070BD10B564
:103460000022002340F66A14A14200D100BF0A12D4
:1034700001249440A3B2DC43048010BD10B504467F
:10348000FE48844208D10121084601F0D2F800210B
:10349000012001F0CEF89DE0B4F1804F08D1012168
:1034A000084601F0B5F80021012001F0B1F891E0E3
:1034B000F348844208D10121022001F0A9F800213B
:1034C000022001F0A5F885E0EE48844208D10121F0
:1034D000042001F09DF80021042001F099F879E022
:1034E000E948844208D10121082001F091F8002127
:1034F000082001F08DF86DE0E448844208D10121F4
:10350000102001F085F80021102001F081F861E021
:10351000DF48844208D10121202001F079F8002100
:10352000202001F075F855E0DA48844208D10121E5
:10353000022001F07EF80021022001F07AF849E033
:10354000D548844209D10121080401F072F8002114
:103550004FF4803001F06DF83CE0D048844209D14E
:103560000121480401F065F800214FF4003001F01A
:1035700060F82FE0CA48844209D10121880401F093
:1035800058F800214FF4802001F053F822E0C5489C
:10359000844208D10121402001F03AF80021402066
:1035A00001F036F816E0C048844208D1012180209D
:1035B00001F02EF80021802001F02AF80AE0BB4833
:1035C000844207D10121801501F022F80021A015C5
:1035D00001F01EF810BD00220288A84B98420ED0C0
:1035E000AC4B98420BD0B0F1804F08D0A44B98421E
:1035F00005D0A44B984202D0A34B984204D14FF679
:103600008F731A404B881A43A04B984207D0A04BA7
:10361000984204D04FF6FF431A400B891A430280A8
:103620004B68C3620B880385944B984202D0994B38
:10363000984201D18B7A03860123838270474FF031
:10364000FF3141600021018001814180817270471A
:103650000185828270470A46002101884FF68F73E8
:10366000194011430180704741627047C162704741
:103670000146486A70470146088D704721B10288AB
:1036800042F00202028004E002884FF6FD731A4005
:103690000280704721B1028842F00402028004E0F7
:1036A00002884FF6FB731A400280704721B10288EE
:1036B00042F08002028004E002884FF67F731A40D5
:1036C0000280704702884FF6F7731A400280028822
:1036D0000A430280704702884FF6FF431A40028077
:1036E00002880A430280704721B1028842F0010239
:1036F000028004E002884FF6FE731A400280704791
:1037000070B5002400220023058C4FF6FE7635406C
:103710000584028C8388048B4FF68F752C40B51E70
:103720002C400D882C43751E2A408D892A434D88D4
:103730002A43524DA84202D0564DA84213D14FF60B
:10374000F7752A40CD892A434FF6FB752A408D88AC
:103750002A434FF6FF652B404FF6FF552B400D8A4D
:103760002B434D8A2B43838004838D6845630284F9
:1037700070BD70B5002400220023058C4FF6EF7653
:1037800035400584028C8388048B48F6FF752C40F5
:103790004FF6FF452C400D884FF6FF7606EA0525CB
:1037A0002C434FF6DF752A408D8906EA05152A431A
:1037B0004D8806EA05152A43304DA84202D0354D02
:1037C000A8421DD14FF67F752A40CD894FF6FF766E
:1037D00006EA05152A434FF6BF752A408D8806EA8A
:1037E00005152A434FF6FF352B404FF2FF752B404E
:1037F0000D8A06EA85052B434D8A06EA85052B438B
:10380000838004838D688563028470BD70B5002455
:1038100000220023058C4FF6FF6635400584028C9C
:103820008388848B4FF68F752C404FF6FC752C40A7
:103830000D882C434FF6FF552A408D894FF6FF76B1
:1038400006EA05252A434D8806EA05252A430B4D3D
:10385000A84202D00F4DA84238D14FF2FF752A403E
:10386000CD894FF6FF7606EA05252A434FF6FF3548
:103870002A408D8806EA05252A4319E00000014008
:103880000004004000080040000C00400010004010
:103890000014004000040140004001400044014089
:1038A0000048014000180040001C0040002000407B
:1038B0004EF6FF752B404DF6FF752B400D8A06EA3C
:1038C00005152B434D8A06EA05152B438380848317
:1038D0008D68C563028470BD70B50022002300248A
:1038E000058C4EF6FF7635400584038C8488828BE8
:1038F00048F6FF752A404FF6FF452A400D884FF6DF
:10390000FF7606EA05252A434DF6FF752B408D8983
:1039100006EA05352B434D8806EA05352B43FE4D57
:10392000A84202D0FD4DA84208D14BF6FF752C40AD
:103930000D8A4FF6FF7606EA85152C438480828334
:103940008D680564038470BD002101804180818001
:1039500081608181C18101824182704770B50346D7
:10396000002000241846183001258D40ACB21D8C73
:10397000A5431D8409B108290AD100EB610005683F
:103980004FF68F76354005600568154305600FE0FA
:103990000D1FC5F34E052844056848F6FF763540EF
:1039A000056005684FF6FF7606EA02263543056096
:1039B00070BD4163704781637047C16370470164A4
:1039C00070470A460021018B4FF68F73194011434F
:1039D000018370470A460021018B48F6FF731940A6
:1039E0004FF6FF7303EA02231943018370470A4627
:1039F0000021818B4FF68F731940114381837047EB
:103A00000A460021818B48F6FF7319404FF6FF7379
:103A100003EA02231943818370470A460021018B80
:103A20004FF6F77319401143018370470A4600218E
:103A3000018B4FF2FF7319404FF6FF7303EA022325
:103A40001943018370470A460021818B4FF6F773B3
:103A500019401143818370470A460021818B4FF240
:103A6000FF7319404FF6FF7303EA02231943818362
:103A700070470A460021018B4FF6FB731940114332
:103A8000018370470A460021018B4FF6FF3319402E
:103A90004FF6FF7303EA02231943018370470A4676
:103AA0000021818B4FF6FB731940114381837047CE
:103AB0000A460021818B4FF6FF3319404FF6FF7302
:103AC00003EA02231943818370470A460021018BD0
:103AD0004FF67F7319401143018370470A46002156
:103AE000018BC1F30E014FF6FF7303EA0223194362
:103AF000018370470A460021818B4FF67F7319407E
:103B00001143818370470A460021818BC1F30E0166
:103B10004FF6FF7303EA02231943818370470A4675
:103B20000021018C4FF6FD73194011430184704749
:103B30000A460021018C4FF6F773194011430184A6
:103B400070470A460021018C4FF6DF7319404FF68B
:103B5000FF7303EA02131943018470470A460021E8
:103B6000018C4FF67F7319404FF6FF7303EA02137F
:103B70001943018470470A460021018C4FF6FF5318
:103B800019404FF6FF7303EA02231943018470477B
:103B90000A460021018C4FF2FF7319404FF6FF7364
:103BA00003EA02231943018470470A460021018C6D
:103BB0004DF6FF7319404FF6FF7303EA02331943C2
:103BC0000184704730B5002301248C40A3B2048CDB
:103BD0009C430484048C02FA01F5ADB22C430484A6
:103BE00030BD30B5002304248C40A3B2048C9C4328
:103BF0000484048C02FA01F5ADB22C43048430BD78
:103C0000828B4FF2FF331A408283828B4FF6FF7311
:103C100003EA01231A4382837047F0B50C46154628
:103C2000002100220026078C4EF6FF7C07EA0C07D5
:103C30000784818B028C4FF6FF7707EA043640F643
:103C4000FF4739404FF6FF7707EA052739434FF61C
:103C5000FF7707EA0337394345F6FF773A4046F4E2
:103C600080573A4381830284F0BD828B4FF6F37311
:103C70001A408283828B0A4382837047F0B50C46D8
:103C80001546002100220026078C4FF6FF6C07EA3C
:103C90000C070784818B028C4FF6FF7707EA042616
:103CA0004FF60C7739404FF6FF7707EA03172F439B
:103CB00039434FF2FF573A4046F480773A438183C5
:103CC0000284F0BD028B4FF2FF331A400283028B55
:103CD0004FF6FF7303EA01231A4302837047F0B5DE
:103CE0000C461546002100220026078C4FF6EF7C7B
:103CF00007EA0C070784018B028C4FF6FF7707EA6F
:103D0000041640F6FF4739404FF6FF7707EA0337BE
:103D100039434FF6FF7703E0000001400004014003
:103D200007EA052739434FF65F773A4046F0100718
:103D30003A4301830284F0BD028B4FF6F3731A40BD
:103D40000283028B0A4302837047F0B50C46154686
:103D500000210022068C4FF6FE773E400684018B40
:103D6000028C4FF60C7631407E1C06EA03162E4379
:103D700031434FF6F576324044F001063243018379
:103D80000284F0BD70B505460C46208850B92389E1
:103D9000A28861882846FFF7D8FFE1882846FFF708
:103DA000CBFF25E0208804280AD12389A2886188D6
:103DB0002846FFF794FFE1882846FFF783FF17E0C6
:103DC000208808280AD12389A28861882846FFF71D
:103DD00055FFE1882846FFF748FF09E02389A288BC
:103DE00061882846FFF719FFE1882846FFF708FF9A
:103DF00070BD002101804180012181800021C180AE
:103E0000018170472DE9F04105460C460026012747
:103E1000608808B9022600E00026A088012801D1A8
:103E2000022700E001272088A0B92389A2886188A1
:103E30002846FFF78AFFE1882846FFF77DFF2389A0
:103E40003A4631462846FFF74AFFE1882846FFF701
:103E500039FF13E02389A28861882846FFF73FFFD6
:103E6000E1882846FFF72EFF23893A463146284647
:103E7000FFF76BFFE1882846FFF75EFFBDE8F081A2
:103E80000146486B70470146886B70470146C86B16
:103E900070470146086C70470A884B881A438B8824
:103EA0001A43CB881A430B891A434B891A438B89CF
:103EB0001A43A0F84420704700210180418081808E
:103EC000C180018141818181704731B1B0F84420C6
:103ED00042F40042A0F8442005E0B0F84420C2F3C8
:103EE0000E02A0F84420704721B1828842F00402FB
:103EF000828004E082884FF6FB731A40828070470C
:103F000021B1828842F00102828004E082884FF66B
:103F1000FE731A40828070471AB183890B438381F4
:103F200002E083898B438381704781827047024618
:103F30000020138A0B400BB1012000E000207047E5
:103F4000CA430282704730B5024600200023002495
:103F5000158A05EA0103958905EA010413B10CB13C
:103F6000012000E0002030BDCA430282704741EAD0
:103F70000203A0F8483070471AB183890B4383814C
:103F800002E083898B438381704721B1828842F0AC
:103F90000802828004E082884FF6F7731A4082801C
:103FA000704701894FF6F8721140018170470A4647
:103FB000002101894FF68F73194011430181704729
:103FC00030B504460D4629462046FFF7F0FF20890C
:103FD00040F00700208130BD2DE9F04104460D4638
:103FE00016461F46602D06D13B460122314620462B
:103FF000FFF775FE05E03B46012231462046FFF7FC
:10400000A4FE29462046FFF7D2FF208940F0070092
:104010002081BDE8F08130B50C4600210189C9B28C
:104020004FF6FF7505EA0325154325432943018112
:1040300030BD2DE9F04105460E461746984600244E
:1040400043463A4631462846FFF7E5FF2C894FF6AE
:10405000F870044044F007044FF68F70044044F0B9
:1040600070042C81BDE8F081F0B504460D4616467B
:104070001F463B46324629462046FFF7CCFF2089A3
:1040800040F480402081F0BD82884FF68F731A4043
:10409000828082880A438280704702894FF6F873D3
:1040A0001A40028102890A430281704702894FF651
:1040B0007F731A40028102890A4302817047F0B57A
:1040C0000C4615461E460021002200230189028B62
:1040D000038C4FF6F877394021434FF6FC473A40BE
:1040E00040F201173A434FF6DD773B404FF6FF773A
:1040F00007EA06172F433B43018102830384F0BD87
:1041000021B1828842F08002828004E082884FF6EA
:104110007F731A4082807047A0F8501070470000EB
:10412000F948006840F00100F74908600020F649AE
:1041300008310860F4480068F4490840F249086012
:10414000F348091D0860F348EF4984310860F048DE
:104150001038091D0860EC48006820F48020EA4906
:1041600008600020E8490C310860E7498C3108609C
:1041700070470021E44A921C117011460870704784
:1041800010B501460022002300204A11012A02D165
:10419000DD4C236808E0022A03D1DB4C703423682D
:1041A00002E0D94C7434236801F01F0201249440CA
:1041B0001C400CB1012000E0002010BD38B50020EB
:1041C00000900024002500BF3120FFF7D9FF0546ED
:1041D0000098401C00900098B0F5A04F01D0002D31
:1041E000F2D03120FFF7CCFF08B1012400E0002419
:1041F000204638BD01460020C34A106820F0F80070
:1042000040EAC10010607047C34908607047002150
:10421000BD4A703211701170012802D004280AD1F1
:1042200004E00121B84A7032117005E00521B64A58
:104230007032117000E000BF00BF7047B7490860DE
:10424000704770B5049C41EA82150126C6EB5306FF
:1042500045EA0645054345EA0465AB4E361D356023
:1042600070BDAD4908667047820142EA0172A64BF3
:1042700084331A607047A8498866704710B5830177
:1042800043EA016343EA02739F4C8834236010BD04
:10429000A14908677047A049C864704702460020DA
:1042A000994B0833186820F0EC6042EA0103184388
:1042B000954B08331860704702460020924B083334
:1042C000186820F0784042EA010318438E4B083307
:1042D00018607047014600208B4A0832106820F0B1
:1042E000030008431060704787480830006800F0FA
:1042F0000C00704701460020834A0832106820F005
:10430000F000084310607047014600207E4A0832E2
:10431000106820F4E0500843106070470146002008
:10432000794A0832106820F4604040EAC100106009
:104330007047F0B500210022002402250026022348
:10434000714F08373F6807F00C0121B1042905D0EF
:10435000082937D105E0724F076036E0714F0760DA
:1043600033E0694F3F1D3F68C7F38056664F3F1DDE
:104370003F6807F03F036EB16A4FB7FBF3F7DFF812
:1043800088C10CF1040CDCF800C0CCF3881C07FBDE
:104390000CF40CE0624FB7FBF3F7DFF86CC10CF1E3
:1043A000040CDCF800C0CCF3881C07FB0CF4564F5F
:1043B0003F1D3F68C7F301477F1C7D00B4FBF5F745
:1043C000076002E0564F076000BF00BF4E4F08373E
:1043D0003F6807F0F0010909534F7A5C0768D7403E
:1043E0004760494F08373F6807F4E051890A4E4F4C
:1043F0007A5C4768D7408760434F08373F6807F4C7
:104400006041490B484F7A5C4768D740C760F0BDB0
:10441000002100F44072B2F5407F0AD13A4A0832D6
:10442000116821F4F811414A02401143364A08321A
:104430001160354A70321268C0F30B031A43324BD5
:1044400070331A6070473549443908607047334902
:1044500040390860704736490860704701460020BF
:10446000294A8C32106820F01F004A1E1043264A49
:104470008C321060704701460020234A8C3210684D
:1044800020F4F8504A1E40EA02201F4A8C32106085
:104490007047014600201C4A8C32106820F44010FE
:1044A00008431060704701460020174A8C3210689C
:1044B00020F4400008431060704701460020124A73
:1044C0008C32106820F4403008431060704719495E
:1044D0000860704739B10C4A3032126802430A4B07
:1044E00030331A6006E0084A303212688243064BC5
:1044F00030331A607047F9B1034A3432126802430C
:10450000014B34331A601CE000380240FFFFF6EA2A
:10451000103000240030002000004742800E474247
:104520000024F400001BB70078000020FFFCFF0F00
:104530005C014742E01147428F4A126882438E4B2A
:104540001A60704739B18C4A121D126802438A4BB7
:104550001B1D1A6006E0884A121D12688243864BB2
:104560001B1D1A60704739B1834A0C32126802432E
:10457000814B0C331A6006E07F4A0C32126882438A
:104580007D4B0C331A60704739B17B4A1032126888
:104590000243794B10331A6006E0774A10321268F2
:1045A0008243754B10331A60704739B1724A243A0E
:1045B00012680243704B243B1A6006E06E4A243AAC
:1045C000126882436C4B243B1A60704739B16A4AC7
:1045D000203A12680243684B203B1A6006E0664AA4
:1045E000203A12688243644B203B1A60704739B10D
:1045F000614A1C3A126802435F4B1C3B1A6006E09A
:104600005D4A1C3A126882435B4B1C3B1A60704740
:1046100039B1594A143A12680243574B143B1A6095
:1046200006E0554A143A12688243534B143B1A6011
:10463000704739B1504A103A126802434E4B103B52
:104640001A6006E04C4A103A126882434A4B103B0B
:104650001A60704739B1484A1C3212680243464B0F
:104660001C331A6006E0444A1C3212688243424BF3
:104670001C331A60704739B13F4A20321268024336
:104680003D4B20331A6006E03B4A203212688243D9
:10469000394B20331A60704739B1374A24321268D7
:1046A0000243354B24331A6006E0334A2432126841
:1046B0008243314B24331A60704739B12E4A2C3271
:1046C000126802432C4B2C331A6006E02A4A2C3223
:1046D00012688243284B2C331A60704739B1264A3E
:1046E000303212680243244B30331A6006E0224A0B
:1046F000303212688243204B30331A6070470128F1
:1047000008D11D493C31096841F008011A4A3C3280
:10471000116007E018493C31096821F00801164A88
:104720003C321160704739B1134A273A127802437C
:10473000114B273B1A7006E00F4A273A1278824342
:104740000D4B273B1A7070470B484030006840F013
:104750008070094940310860704701460020064AD0
:10476000283A12680A400AB1012000E00020704790
:1047700001492639087070473438024010B50446A4
:10478000FB48844208D101218014FFF752FF002129
:10479000A014FFF74EFF3CE0F648844208D1012107
:1047A0000014FFF735FF00212014FFF731FF30E040
:1047B000F148844208D10121C013FFF729FF0021ED
:1047C000E013FFF725FF24E0EC48844208D10121E3
:1047D0004014FFF72EFF00216014FFF72AFF18E0B6
:1047E000E748844209D101210805FFF722FF002193
:1047F0004FF48010FFF71DFF0BE0E248844208D120
:1048000001214805FFF715FF00214FF40010FFF7C5
:1048100010FF10BD10B50022028802F441520B882F
:104820004C8823438C882343CC8823430C8923431F
:104830004C8923438C892343CC8923431A43028028
:10484000838B4FF2FF74234083830B8A038210BD56
:104850002DE9F04F0025022300244FF0010900222A
:104860000026002794469046B0F81CA04FF2400B5B
:104870000AEA0B0AA0F81CA04FF0020AA0F820A038
:10488000858BD1F808A0BAF1020F01D100BF82E0F8
:10489000B1F804A0BAF1000F02D14FF0010901E014
:1048A0004FF00209DFF8E0A2DAF800A00AF4000AEB
:1048B000BAF1000F09D0DFF8D0A2DAF800A02AF48C
:1048C000000ADFF8C4B2CBF800A0DFF8BCA20AF1FE
:1048D0007C0ADAF800A0CAF3881CDFF8ACA20AF15F
:1048E0007C0ADAF800A0CAF30278DFF89CA2AAF1E9
:1048F000040ADAF800A00AF03F07DFF88CA2AAF158
:10490000040ADAF800A00AF4800ABAF5800F08D188
:10491000DFF878A2BAFBF7FA0AFB0CFABAFBF8F652
:1049200007E0DFF86CA2BAFBF7FA0AFB0CFABAFB55
:10493000F8F6B1F806A0BAF5007F0ED14FEA162AB4
:104940000AEB8A0A4FEA4A0AD1F808B0BAFBFBFA26
:104950000AF1050A1FFA8AF20FE04FEA491AB6FB7C
:10496000FAFA0AEB8A0A4FEA4A0AD1F808B0BAFB07
:10497000FBFA0AF1050A1FFA8AF24FF00A0AB2FBA3
:10498000FAF202F00104A2EB040ACAF34F034FF655
:10499000FF7A0AEA0424022B01DBFF2B01DD02234C
:1049A0000024B1F806A04AEA040A4AEA030AA0F879
:1049B00020A0B1F804A0B1F80CB04AEA0B0AB1F893
:1049C00002B04AEA0B0AB1F800B04AEA0B0A4AF40C
:1049D000006A4AEA05058583BDE8F08F0021018061
:1049E00041808180C180018141818181C181072114
:1049F000018270470021018041808180C1800221B5
:104A0000816000218181704721B1028842F040021B
:104A1000028004E002884FF6BF731A40028070479C
:104A200021B1828B42F48062828304E0828B4FF654
:104A3000FF331A408283704702884FF2FF731A4097
:104A4000028002880A4302807047B1F5804F04D18A
:104A5000028842F48042028004E002884BF6FF7331
:104A60001A40028070474FF6FF62914204D00288DC
:104A700042F48072028004E002884FF6FF631A401D
:104A80000280704721B1828842F00402828004E0F3
:104A900082884FF6FB731A408280704721B182886A
:104AA00042F01002828004E082884FF6EF731A40D1
:104AB0008280704730B500220023848B4FF240057E
:104AC0002C40848302240484828B0C88B4F5007FFC
:104AD00001D00C8814B94FF4807308E00C88B4F549
:104AE000407F03D00C88B4F5807F00D100238C88F0
:104AF0008D892C434D882C431C4344F4006422438D
:104B0000828330BD0146888970478181704721B119
:104B1000028842F40052028004E002884DF6FF73DE
:104B20001A4002807047018841F48051018070472B
:104B300002460020012901D0108B00E0908A7047C6
:104B40000146088A70471AB183880B43838002E0CC
:104B500083888B438380704730B5002400230C1179
:104B60000125A540ABB2AAB185881D43858014E01C
:104B70000030014000380040003C0040003401405B
:104B8000005001400054014008380240001BB700AB
:104B90000024F40085889D43858030BD02460020B6
:104BA00013890B400BB1012000E000207047CA437D
:104BB00002817047F0B50246002000240023002542
:104BC00001F00F070126BE40B4B20B1101269E4032
:104BD000B3B2968806EA03051689264016B10DB1D0
:104BE000012000E00020F0BD10B5002201F00F040C
:104BF0000123A3409AB2D343038110BD10B50446EC
:104C0000F848844209D101214805FFF701FD002140
:104C10004FF40010FFF7FCFC18E0F348844209D180
:104C200001218805FFF7F4FC00214FF48000FFF715
:104C3000EFFC0BE0ED48844208D10121C805FFF7E5
:104C4000E7FC00214FF40000FFF7E2FC10BD2DE966
:104C5000FF4704460D460026B1460427DFF890833F
:104C6000A6884FF6C07006406846FFF762FBDDF885
:104C70000880E048B8FBF0F01FFA80F946EA090620
:104C8000A68020884FF6FE71084020800026DA4971
:104C9000286888420CD828684000B8FBF0F087B23A
:104CA000042F00DA04273E4309F10100208427E0A5
:104CB000E8884BF6FF71884206D1286800EB400077
:104CC000B8FBF0F087B209E0286800EBC00101EB07
:104CD0000010B8FBF0F087B247F48047C7F30B0031
:104CE00008B947F0010747F4004006434FF49670B7
:104CF00009FB00F04FF47A7190FBF1F0401C208426
:104D0000A683208840F00100208026884FF6F530E9
:104D10000640A8886989084306432680A88929890E
:104D200008432081BDE8FF8741F2883101600021FE
:104D300081804BF6FF71C1800021018141814FF4D8
:104D400080418181704721B1028842F001020280D6
:104D500004E002884FF6FE731A400280704729B1C2
:104D6000828C4FF6EF731A40828403E0828C42F00B
:104D70001002828470470A460021818C4FF6F0733E
:104D8000194002F00F0319438184704721B1028852
:104D900042F48072028004E002884FF6FF631A40FA
:104DA0000280704721B1028842F40072028004E060
:104DB00002884FF6FF531A400280704712B141F04B
:104DC000010101E001F0FE010182704721B102887A
:104DD00042F48062028004E002884FF6FF331A40FA
:104DE000028070470A46002181894FF601731940FD
:104DF00002F0FE0319438181704721B1828942F09C
:104E00000102828104E082894FF6FE731A4082819A
:104E1000704721B1028842F04002028004E002881B
:104E20004FF6BF731A400280704721B1028842F4E6
:104E30000042028003E00288C2F30E020280704743
:104E400021B9028842F08002028004E002884FF615
:104E50007F731A4002807047B1F5804F05D0828B76
:104E60004BF6FF731A40828303E0828B42F4804248
:104E700082837047B1F5006F04D1028842F400626A
:104E8000028004E002884FF2FF731A4002807047EC
:104E9000B1F5005F04D1028842F40052028004E0C0
:104EA00002884DF6FF731A400280704721B10288D4
:104EB00042F01002028004E002884FF6EF731A40BD
:104EC00002807047018270470146088AC0B270476D
:104ED00021B1028842F48052028004E002884EF63A
:104EE000FF731A4002807047B1F5006F04D1028849
:104EF00042F40062028004E002884FF2FF731A401D
:104F00000280704721B1028842F02002028004E052
:104F100002884FF6DF731A40028070470146088B03
:104F20000012704721B1828842F40062828004E05E
:104F300082884FF2FF731A408280704721B18288C5
:104F400042F48052828004E082884EF6FF731A4059
:104F50008280704708B502460020009000920098B9
:104F6000084400900098008808BD1AB183880B435C
:104F7000838002E083888B438380704770B502464C
:104F80000024002500230020958A138B1B0445EA8A
:104F9000030626F07F4404EA01068E4201D1012077
:104FA00000E0002070BD10B5014600200023002263
:104FB0008B8A0A8B120443EA020424F07F4010BD5E
:104FC0000CB50246002000230193009300920B0FC2
:104FD000019321F07F41019B83B1009B1433009327
:104FE00010E000000054004000580040005C004009
:104FF00000127A0040420F00A0860100090C009BBD
:1050000018330093009B1B680B400BB1012000E09C
:1050100000200CBD002221F07F42D34383827047E1
:1050200030B5024600200023948801F0E06504EAD0
:10503000154321F07F41948A0C4014B10BB101203B
:1050400000E0002030BD002221F07F42D343838264
:1050500070472DE9F0410024061B254671F100063A
:1050600005DA01240027D0EB070067EB0101161ECB
:1050700073F1000605DA0027D2EB0702012567EB82
:10508000030300F051FA86460E4617469C46AC4292
:1050900004D00025D0EB050E65EB010624B10020FD
:1050A000D2EB000760EB030C704631463A4663468C
:1050B000BDE8F0812DE9FE4F804681EA0300C00F74
:1050C0000C46009021F0004123F00045B8EB0200AF
:1050D000A94105D24046214690461C460B46024651
:1050E00023F00040104347D0270DC7F30A00C3F355
:1050F0000A510290401A019040286BDAC3F3130062
:1051000040F4801B0098924620B10023D2EB030AA2
:1051100063EB0B0B01985946C0F14002504600F07A
:1051200034FA06460D4650465946019A00F04CFAAC
:1051300010EB08006141002487EA115284EAE7730A
:105140001A4340D0009A62B3019A012A4FEA0752EB
:1051500015DC001B61EB02014FF0004202EA07522E
:10516000CDE90042001C41F5801132462B4600F08B
:1051700083FA03B0BDE8F08F40462146F9E7001BF3
:1051800061EB0201001C41F5801300185B412018FF
:10519000A2F5001747EB030140EAD570B6196D413F
:1051A00011E06D084FEA360645EAC0754FEA07522E
:1051B000001B61EB0201001C41F5801149084FEA18
:1051C00030000019514132462B4603B0BDE8F04F84
:1051D00000F043BA0098012240000023D0EB020205
:1051E00063EBE073009821464FEAE074B8EB0000EF
:1051F00061EB0401E9E783F000435BE781F00041E4
:1052000058E72DE9FE4F81EA030404F0004421F041
:10521000004100944FF0000B23F0004350EA0104DA
:105220005ED052EA03045BD0C3F30A54C1F30A55BB
:105230002C44A4F2F3340194A0FB0254C1F31301F3
:1052400041F48011C3F3130343F4801301FB0244C0
:1052500000FB034E840A970A44EA815447EA8357C5
:10526000A4FB076802958D0A05FB07854FEA932C7E
:1052700004FB0C542705029D4FEA065847EA1637EF
:10528000B5EB08056EEB070C870E920E47EA811707
:1052900042EA8312A7FB0201B6EB0B0164EB0004A8
:1052A0002B0D43EA0C335E1844EB1C50DA46514692
:1052B000E7FB0201C5F313044FEA0B3343EA14532F
:1052C0004FEA0432019C43EA0603A4F10C04029461
:1052D000009CCDE900B400F0CFF903B0BDE8F08F39
:1052E00000200146F9E72DE9F04D81EA030404F0BE
:1052F000004B21F0004514464FF0000A23F0004116
:1053000050EA050220D054EA01021DD0C5F30A5725
:105310000246C5F31303C1F31300C1F30A5640F468
:10532000801543F48013A7EB0608101BD64608F23D
:10533000FD3873EB050002D308F1010801E0921873
:105340005B41B8F1000F03DA00200146BDE8F08DA3
:1053500000204FF48011064684460EE0171B73EBC5
:10536000050705D3121B63EB050306434CEA010C4A
:1053700049084FEA300092185B4150EA0107EDD12D
:1053800052EA030012D082EA040083EA05010843CE
:1053900005D0101BAB4106D20122002306E00022FB
:1053A0004FF0004302E06FF0010253101AEB0600C9
:1053B0004CEB085110EB0A0041EB0B01BDE8F04D3E
:1053C00000F04BB90EB5C10F80EAE0700844CA077F
:1053D000002140F233438DE80E000A460B4600F0F0
:1053E0004BF903B000BD0EB540F2334102910021EC
:1053F000CDE900110A460B4600F03EF903B000BDAE
:1054000070B5C1F30A5201F000450024C1F3130145
:1054100040F2FF3341F480119A4201DA002070BD5E
:1054200040F233439A42A2F2334203DC524200F08C
:10543000BBF800E090402C43F1D0404270BD00F03A
:10544000004230F000400AD0C10D01F56071C0F398
:10545000160042EA0151C20840071143704700207C
:105460000146704730B5041E71F1000404DB4FF0B3
:105470000044404264EB0101141E73F1000405DB9B
:105480001C464FF00043524263EB04038B4208BFBB
:10549000824230BD30B5041E71F1000404DB4FF0D0
:1054A0000044404264EB0101141E73F1000405DB6B
:1054B0001C464FF00043524263EB0403994208BF7D
:1054C000904230BD01F0004330B421F0004150EA79
:1054D000010206D00A0DA2F56072C1F31301002A81
:1054E00002DC30BC00207047440F44EAC104C10014
:1054F000E01830BC00EBC25000F078B830B50B4675
:10550000014600202022012409E021FA02F59D42F3
:1055100005D303FA02F5491B04FA02F52844151EC7
:10552000A2F10102F1DC30BD2DE9F05F054600205B
:1055300092469B4688460646814640241BE0284604
:1055400041464746224600F02FF853465A46C01AB5
:10555000914110D311461846224600F016F82D1A34
:1055600067EB01084F4622460120002100F00DF8AC
:1055700017EB00094E41201EA4F10104DFDC484670
:1055800031462A464346BDE8F09F202A04DB203AF4
:1055900000FA02F1002070479140C2F1200320FA86
:1055A00003F3194390407047202A04DB203A21FA84
:1055B00002F00021704721FA02F3D040C2F120022C
:1055C0009140084319467047202A06DBCB17203A42
:1055D00041FA02F043EAE07306E041FA02F3D040F8
:1055E000C2F1200291400843194670470029A8BF24
:1055F0007047401C490008BF20F00100704710B4FC
:10560000B0FA80FC00FA0CF050EA010404BF10BCB0
:10561000704749B1CCF1200421FA04F411FA0CF1DD
:1056200018BF012121430843A3EB0C01CB1D4FEA16
:1056300000614FEA102042BF002010BC704700EB11
:10564000C35010440029A4BF10BC7047401C49003F
:1056500008BF20F0010010BC704710B5141E73F194
:10566000000408DA401C41F1000192185B411A4322
:1056700001D120F0010010BD2DE9F04D92469B466E
:1056800011B1B1FA81F202E0B0FA80F22032904614
:10569000FFF77BFF04460F4640EA0A0041EA0B0190
:1056A00053465A46084313D0114653EA010019D015
:1056B000C8F140025046FFF777FF05460E465046B8
:1056C00059464246FFF761FF084305D0012004E038
:1056D00020463946BDE8F08D0020054346EAE076D5
:1056E0002C4337430A986305E40AA0EB0800002224
:1056F000FD0A44EA47540A3002D500200146E9E792
:10570000010510196941DDE9084500196941BDE845
:10571000F04DA2E770B521F0004303430CD0C1F374
:105720000A550024D5EB040564EB0403D617AD1A23
:10573000B34102DB0020014670BD201841EB02514D
:1057400070BDC1F30A52C1F3130140F2FF3341F4BB
:1057500080119A4202DA00200146704740F233433A
:105760009A42A2F2334202DC5242FFF71DBFFFF71A
:105770000CBF0000064C074D06E0E06840F0010356
:1057800094E8070098471034AC42F6D3FAF700FDCE
:10579000707C0008907C00082DE9F04D00231A462B
:1057A0001B1A8A4103DB00200146BDE8F08DC1F3DE
:1057B0000A52C1F3130141F480154FF0000BD107D9
:1057C00002D100186D41521E0027044640F2FF111D
:1057D000384601EB620A3E468046024600204FF4FE
:1057E0008011FFF7E1FEC2197141BB1846EB0100C1
:1057F000B4EB030C75EB000C04D3E41A65EB000565
:1058000017460E46241908F101006D4180463428E0
:10581000E3DDF91946EB0600091BA84103D24FF05E
:10582000FF32134601E0002213461BEB070046EB54
:105830000A51BDE8F04DFFF710BF00000FB4054B53
:1058400010B503A9044A029801F06AFA10BC5DF889
:1058500014FB0000A52A00086800002003B401988A
:105860004100009850EAC12018BF04204A0D18BF1B
:1058700040F0010040F2FF72B2EB515F08BF40F010
:105880000200012808BF052002B070470000000098
:1058900070B59B482DED020B2DED068B079D25F075
:1058A0000044A04218DC9748844202DC0AD10698E2
:1058B00040B19DED060BBDEC068B02B0BDE870401B
:1058C00001F012B9002DCCBF9FED8F0B9FED900B17
:1058D000BDEC068B02B070BD8F48A04215DD8F482D
:1058E000A042D8BF4FF0FF3458DD9DED060B51ECC0
:1058F000100BFFF7B3FF042808BF01F029F99DED55
:10590000060BBDEC068B02B070BD9DED060B51EC95
:10591000100B01F0A4FDCDE9060181489FED828BBB
:10592000A0423CDD8248A0421FDD00249FED82ABF7
:105930009DED060B53EC1A2B51EC100BFFF7BAFB45
:105940009DED060B41EC190B53EC1A2B51EC100B8F
:10595000FFF757FC53EC182BFFF74DFC53EC192BBA
:10596000FFF7C1FCCDE9060149E09DED060B0124DE
:1059700053EC182B51EC100BFFF79CFB9DED060B25
:1059800041EC190B53EC182B51EC100BFFF733FCC7
:1059900053EC192BFFF7A7FCCDE906012FE068486F
:1059A000A0421FDD02249FED689B9DED060B53EC8A
:1059B000192B51EC100BFFF724FC53EC182BFFF7BD
:1059C00079FB9DED060B41EC180B53EC192B51ECB8
:1059D000100BFFF710FC53EC182BFFF784FCCDE9FC
:1059E00006010CE09DED060B032453EC102B9FEDFC
:1059F000580B51EC100BFFF776FCCDE906019DED3D
:105A0000060B53EC102B51EC100BFFF7FAFB41EC9B
:105A1000180B53EC182BFFF7F4FB41EC190B4E4815
:105A20000621B0EE490AF0EE690A784400F0C8FF9A
:105A300053EC182B51EC100BFFF7E3FB41EC180B68
:105A40004648B0EE490AF0EE690A0521784400F0B4
:105A5000B7FF53EC192B51EC100BFFF7D2FB41ECC5
:105A6000100B51EC180B53EC102B002C0EDAFFF737
:105A700021FB9DED061B53EC112BFFF7C2FB9DEDA7
:105A8000061B53EC112BFFF7B9FB35E0FFF712FBB8
:105A90009DED061B53EC112BFFF7B3FB41EC100BF4
:105AA0002F48784400EBC40090ED001B51EC100B24
:105AB00053EC112BFFF79FFB9DED061B53EC112BB5
:105AC000FFF799FB41EC100B2648784400EBC4002B
:105AD00090ED001B51EC100B53EC112BFFF78EFBDC
